:1000000012C02CC02BC02AC029C028C027C026C0BF
:1000100025C024C023C022C021C020C01FC01EC0D4
:100020001DC01CC01BC011241FBECFE5D4E0DEBF25
:10003000CDBF10E0A0E6B0E0EEE3F3E002C0059033
:100040000D92A436B107D9F710E0A4E6B0E001C0E4
:100050001D92A736B107E1F7E1D06FC1D1CF882358
:1000600029F0813029F4939A8B980895929A8A986E
:100070000895882329F0813029F493988B9A089564
:1000800092988A9A0895882319F081E0E8DF02C0E7
:1000900081E0EFDF829BFECF8299FECF0895EF9241
:1000A000FF920F931F93E82E81E0D9DF80E0D7DF26
:1000B00008E512E0C8010197F1F780E0DADFC80136
:1000C0000197F1F781E0D5DF8AE18A95F1F780E0C9
:1000D000C6DF8299FECFFF24F39400E01E2D11703D
:1000E000812FD1DFF126E6940F5F0830B9F78F2D0D
:1000F000CADF81E0B4DF85E88A95F1F78299FECF07
:10010000829BFECF839BFCCF80E0B3DF1F910F91DA
:10011000FF90EF9008958299FECF80B3829BFECF2F
:1001200086958695869581700895FF920F931F930B
:1001300080E095DF81E093DF85E88A95F1F7EBDFDA
:10014000813011F410926200FF2401E010E0F69477
:10015000E2DF882311F090E8F92A817008271F5FF9
:100160001830A9F7D8DF402F50E020E030E0882396
:1001700011F021E030E04217530711F010926200B5
:10018000CADF882311F41092620080E072DF8F2DA5
:100190001F910F91FF90089582DFC7DF8A3F11F012
:1001A00010926200089580E05ADF81E058DF8FEFFF
:1001B000F3DFBBDF8A3A11F010926200B6DF8823CA
:1001C00011F01092620083EFE7DF88ECE5DF83EF48
:1001D000E3DF84E6E1DF83EFDFDF80E5DDDF82EF71
:1001E000DBDFA3DF90E0833009F491E090936500BA
:1001F000992319F48FE08093660088EECDDF83E0C9
:10020000CBDF83EFC9DF8CE3C7DF86EEC5DF84EF8A
:10021000C3DF88EC90E00197F1F70895FF920F9308
:100220001F93CF93DF938FEF87BBA09AA19AA29AD7
:10023000A898A998AA9888BB92E0892F8A95F1F787
:10024000A89A892F8A95F1F7A89880E888BB892F0A
:100250008A95F1F7A99A892F8A95F1F7A99880E6EE
:1002600088BB892F8A95F1F7AA9A9A95F1F7AA98EF
:100270002FE088E190E00FB6F894A89581BD0FBEFD
:1002800021BD91DF88E10FB6F89481BD11BC0FBE8E
:1002900002E0C8E1D0E08EE0F82E47DF80936400F2
:1002A00044DF182F42DF90916000910F909360001F
:1002B00090916100980F9093610080916500882370
:1002C00039F01091660031DF181B1F701093660023
:1002D0008091600088BB802F8A95F1F7A89A802FC3
:1002E0008A95F1F7A8988091610088BB802F8A9544
:1002F000F1F7A99A802F8A95F1F7A9989091640057
:1003000090959770809166008295807F892B886098
:1003100088BB802F8A95F1F7AA9A802F8A95F1F7EA
:10032000AA9880916200882309F0B7CF0FB6F8949D
:0E033000A895C1BD0FBEF1BCB0CFF894FFCFB1
:04033E0080600100DA
:00000001FF
