:1000000012C097C02BC02AC029C028C027C026C054
:1000100025C024C023C022C021C020C01FC01EC0D4
:100020001DC01CC01BC011241FBECFE5D4E0DEBF25
:10003000CDBF10E0A0E6B0E0E6EBF4E002C0059032
:100040000D92A436B107D9F711E0A4E6B0E001C0E3
:100050001D92AD36B107E1F7B7D12BC2D1CF8823BE
:1000600029F0813029F4939A8B980895929A8A986E
:100070000895882329F0813029F493988B9A089564
:1000800092988A9A089580E48ABF8BB780648BBF68
:1000900085B78C7F826085BF089580E48ABF8BB767
:1000A0008F7B8BBF089590916A0190916800EAE67A
:1000B000F0E0E90FF11D808380916A018F5F8093EA
:1000C0006A01809168008F5F8093680008951F9394
:1000D00080916A01882311F410E016C080E48ABF81
:1000E0008BB78F7B8BBFE0916900F0E0E659FF4F43
:1000F000108180916A01815080936A01809169002A
:100100008F5F80936900BFDF812F1F910895282F93
:100110002295207F982F92959F70292B2827922F28
:10012000969596959227892F869589278095817037
:1001300008951F920F920FB60F9211242F933F93A1
:100140004F935F936F937F938F939F93AF93BF93DF
:10015000EF93FF9380916200882309F47FC0809120
:100160006200823021F5909167009230A9F09330BF
:1001700069F0913099F080916B0180FF02C08B98FB
:1001800001C08B9A80916B0186952FC080916C0184
:10019000882311F48B9A5DC08B985BC080B38695E1
:1001A0008695869580FD50C0909362004FC08091E7
:1001B00067008230E9F08B3019F0813041F429C0BA
:1001C00080B386958695869580FF43C01FC0809139
:1001D0006B01869580936B0180B386958695869595
:1001E00080FF37C080916B01806880936B0131C0C4
:1001F00080916B018CDF20B390E0269526952695A3
:1002000030E0217030708217930719F1109262006C
:1002100020C080B386958695869580FF15C0809115
:100220006B0190916A01E0916800F0E0E659FF4FA0
:10023000808380916A018F5F80936A01809168005A
:100240008F5F8093680002C0109262008CE0809300
:10025000670080916700815080936700FF91EF9164
:10026000BF91AF919F918F917F916F915F914F91CE
:100270003F912F910F900FBE0F901F9018958A9865
:100280008B98109268001092690010926A0181E0C8
:10029000809362008BE080936700F5DE7894089588
:1002A0001F93182F80E48ABF8BB78F7B8BBF80E0B2
:1002B000E0DE88EC90E00197F1F781E0DADE8AE198
:1002C0008A95F1F78A9810926A011092680010924C
:1002D000690082E0809362008BE080936700109356
:1002E0006B01812F14DF80936C01CDDE1F91089587
:1002F00080916A018823E1F3EADE0895D1DFF8DF17
:100300008A3F11F01092620008958FEFF7DFF0DF5F
:100310008A3A11F010926200EBDF882311F01092FC
:10032000620083EFEBDF88ECE9DF83EFE7DF84E651
:10033000E5DF83EFE3DF80E5E1DF82EFDFDFD8DFBA
:1003400090E0833009F491E090936500992319F4CB
:100350008FE08093660088EED1DF83E0CFDF83EF0C
:10036000CDDF8CE3CBDF86EEC9DF84EFC7DF0895F6
:100370001F9380916500882311F094E001C093E001
:1003800080916A01891710F480E01CC0A0DE87709C
:1003900080936400109160009ADE180F1093600043
:1003A0001091610094DE180F109361008091650038
:1003B000882339F0109166008ADE181B1F70109395
:1003C000660081E01F9108950F931F93CF93DF93F1
:1003D0002FEF27BBA09AA19AA29AA898A998AA98A9
:1003E00080E888BB92E0892F8A95F1F7A89A892F37
:1003F0008A95F1F7A89880E688BB892F8A95F1F74E
:10040000A99A892F8A95F1F7A99828BB892F8A95EF
:10041000F1F7AA9A9A95F1F7AA982FE088E190E06F
:100420000FB6F894A89581BD0FBE21BD28DF6DDF02
:1004300088E10FB6F89481BD11BC0FBE12E0C8E18F
:10044000D0E00EE095DF882349F18091600088BB01
:10045000812F8A95F1F7A89A812F8A95F1F7A898AC
:100460008091610088BB812F8A95F1F7A99A812F2D
:100470008A95F1F7A9989091640090959770809172
:1004800066008295807F892B886088BB812F8A9542
:10049000F1F7AA9A812F8A95F1F7AA9880916200C4
:1004A000882381F60FB6F894A895C1BD0FBE01BD93
:0604B000C9CFF894FFCF54
:0404B600806003005F
:00000001FF
