:1000000045C069C068C067C066C065C064C063C0E1
:1000100062C058C260C05FC05EC05DC05CC05BC0F3
:100020005AC059C058C000000000360033003000EC
:1000300000000000000000000004050700000000B0
:100040000000000000000000000000380035003211
:1000500000000000003700340031000404040404F0
:100060000404040202020202020303030303030264
:10007000020301020408102040800102040810203D
:10008000010204081020408040008B0311241FBE91
:10009000CFE5D4E0DEBFCDBF10E0A0E6B0E0E0E504
:1000A000F7E002C005900D92A236B107D9F720E023
:1000B000A2E6B0E001C01D92A837B207E1F710E058
:1000C000C6E4D0E003C02197FE013AD3C534D1077E
:1000D000D1F742D23BC394CF853041F0873049F00D
:1000E000843051F48FB58F778FBD08958FB58F7D94
:1000F000FBCF85B58F7D85BD0895CF93DF93282FE6
:1001000030E0F901E05DFF4F8491F901EE58FF4FB7
:10011000D491F901E55AFF4FC491CC2399F0811194
:10012000DBDFEC2FF0E0EE0FFF1FEA5DFF4FA59144
:10013000B491EC91ED2381E090E009F480E0DF914F
:10014000CF91089580E090E0FACFCF93DF93809134
:100150006C00D3DF892BD9F780916E00CEDFEC01E4
:1001600080916C00CADF892BD9F3CE01DF91CF914A
:1001700008951F93CF93DF93282F30E0F901E05DBE
:10018000FF4F8491F901EE58FF4FD491F901E55AE0
:10019000FF4FC491CC23A1F0162F81119DDFEC2FCE
:1001A000F0E0EE0FFF1FE95BFF4FA591B4918FB711
:1001B000F894EC91111108C0D095DE23DC938FBF29
:1001C000DF91CF911F910895DE2BF8CFAC019C01F8
:1001D0003327F901EE58FF4F9491255A3F4FF9010B
:1001E0002491222399F030E0220F331FF901EF5AB6
:1001F000FF4FA591B491F901E95BFF4F259134912F
:100200008FB7F894EC91E92BEC938FBF60E0842FCB
:10021000B0CFCF93DF939C013327F901EE58FF4F06
:100220004491255A3F4FF90124912223C1F030E037
:10023000220F331FF901EF5AFF4FC591D491F901F5
:10024000E95BFF4FA591B4913FB7F8942881E42F63
:10025000E0952E2328832C91E223EC933FBF61E0AD
:10026000DF91CF9186CF000000008230910529F008
:10027000880F991F05970197F1F708950F931F9322
:10028000CF93DF93EC0180916E0090916F00C1DFFE
:1002900080916C0090916D00BCDF8CE291E0E3DF17
:1002A00080916C0090916D0091DF8CE291E0DBDF3A
:1002B00080916E0090916F0089DF8AE090E0D3DF3B
:1002C00080916C0090916D00A4DF80916C0015DF2F
:1002D000892BD9F708E011E080916E0090916F00B2
:1002E000C0FF46C096DF80916C0007DF892BD9F3F1
:1002F00080916C0002DF892BD9F72C2F2170822F7F
:100300008127D595C795015089F580916E00909110
:100310006F00211779F17DDF80916C00EEDE892B73
:10032000D9F380916C00E9DE892BD9F780916E00BA
:1003300090916F006EDF82E390E095DF80916C001A
:10034000DCDE892BD9F780916C00D7DE892BD9F3BD
:1003500080916E00D2DE892BB1F380916C00909178
:100360006D00DF91CF911F910F9130CF182FB4CF37
:100370002DDFB9CF2BDFD0CFCF92DF92EF92FF925C
:100380000F931F93CF9380916C0090916D0041DF8C
:1003900080916E0090916F003CDF82E390E063DF1C
:1003A00080916C00AADE8C01892BD1F785E090E06A
:1003B0005ADF80916C00A1DE892BD9F3C0E0C12CFB
:1003C000D12C7601C394C1DEB701A601002E04C072
:1003D000440F551F661F771F0A94D2F7892BB1F07F
:1003E000C42B0F5F1F4F0830110569F7AEDEADDE7D
:1003F00080916C0090916D00E9DE8C2FCF911F9160
:100400000F91FF90EF90DF90CF9008954095C42317
:10041000E8CF3FB7F8948091670090916800A09171
:100420006900B0916A0022B708B600FE05C02F3FF0
:1004300019F00196A11DB11D3FBFBA2FA92F982F0A
:100440008827BC01CD01620F711D811D911D43E004
:10045000660F771F881F991F4A95D1F708958F92CD
:100460009F92AF92BF92CF92DF92EF92FF92D1DF35
:100470004B015C0184E1C82ED12CE12CF12CC9DFA9
:10048000681979098A099B09683E734081059105BD
:10049000B0F321E0C21AD108E108F10888EE880E15
:1004A00083E0981EA11CB11CC114D104E104F10425
:1004B00031F7FF90EF90DF90CF90BF90AF909F907B
:1004C0008F9008951F920F920FB60F9211242F93C1
:1004D0003F938F939F93AF93BF93809163009091CD
:1004E0006400A0916500B09166003091620026E042
:1004F000230F2D3768F129E8230F0396A11DB11DA5
:10050000209362008093630090936400A093650041
:10051000B09366008091670090916800A091690097
:10052000B0916A000196A11DB11D80936700909360
:100530006800A0936900B0936A00BF91AF919F914A
:100540008F913F912F910F900FBE0F901F90189594
:100550000296A11DB11DD4CF789483B7836083BF69
:1005600089B7816089BF82E08EBD8EB581608EBD06
:100570008FB581608FBD85B5846085BD85B580648C
:1005800085BD86E886B91AB880916C0090916D009F
:1005900040DE80916E0090916F003BDE60DF8FEF58
:1005A00090E06CDEE9DE5BDFE7DEE6DE58DFC0917F
:1005B0007000D0917100C130D10509F09AC080EF70
:1005C00090E05CDED9DE809170009091710002971E
:1005D00071F48091740090917500892B41F484EF3F
:1005E00090E04CDEC9DED0937500C093740080911A
:1005F000720090917300892B19F084E690E033DE4D
:1006000081E090E0909371008093700084E690E028
:100610002ADE81E090E090937300809372008FEF68
:1006200087BB84BBA898A998AA9888BB82E090E071
:100630001ADEA89A8AE090E016DEA89880E888BBC7
:1006400082E090E010DEA99A8AE090E00CDEA998A2
:1006500080E688BB82E090E006DEAA9A8AE090E01D
:1006600002DEAA9800E010E08BEE90E007DE84DE68
:1006700083DEF82E81DEC82F880FDD0BF4FCDF6FE0
:100680007BDE082E000C990BF5FC9F6FF0926B003F
:1006900090916100C90FC093610090916000890F33
:1006A00080936000C8BB82E090E0DDDDA89A8AE01C
:1006B00090E0D9DDA8988091600088BB82E090E04E
:1006C000D2DDA99A8AE090E0CEDDA99880916B00F6
:1006D0008095886F88BB82E090E0C5DDAA9A8AE0A9
:1006E00090E0C1DDAA980115110509F4BDCF88DCA1
:1006F000BBCF8091740090917500892B09F086CF53
:1007000084EF90E0BBDD38DE81E090E090937500EF
:10071000809374007BCFECE6F0E082E090E0918380
:10072000808323E030E033832283958384831782A0
:10073000168281E090E09387828711861086089563
:10074000EE0FFF1F0590F491E02D0994F894FFCF70
:020750006080C7
:00000001FF
