:100000006AC184C183C182C181C180C17FC17EC1F7
:100010007DC17CC17BC17AC179C178C177C176C10C
:1000200075C174C173C10000000000000000002F02
:10003000000000000700070000147F147F14002454
:100040002A7F2A1200626408132300364955225081
:1000500000000503000000001C22410000004122B6
:100060001C000014083E08140008083E08080000A0
:1000700000A0600000080808080800006060000098
:10008000002010080402003E5149453E0000427F16
:100090004000004261514946002141454B31001862
:1000A00014127F10002745454539003C4A49493024
:1000B00000017109050300364949493600064949DE
:1000C000291E0000363600000000563600000008E9
:1000D00014224100001414141414000041221408C6
:1000E00000020151090600324959513E007C1211AB
:1000F000127C007F49494936003E41414122007F40
:100100004141221C007F49494941007F09090901F9
:10011000003E4149497A007F0808087F0000417F7E
:100120004100002040413F01007F08142241007F30
:1001300040404040007F020C027F007F0408107F97
:10014000003E4141413E007F09090906003E415100
:10015000215E007F091929460046494949310001BD
:10016000017F0101003F4040403F001F2040201F11
:10017000003F4038403F00631408146300070870D4
:10018000080700615149454300007F414100005587
:100190002A552A55000041417F0000040201020453
:1001A0000040404040400000010204000020545440
:1001B0005478007F48444438003844444420003890
:1001C0004444487F00385454541800087E09010202
:1001D0000018A4A4A47C007F080404780000447DD7
:1001E0004000004080847D00007F10284400000013
:1001F000417F4000007C04180478007C08040478E7
:1002000000384444443800FC2424241800182424D2
:1002100018FC007C080404080048545454200004CE
:100220003F444020003C4040207C001C2040201CDB
:10023000003C4030403C004428102844001CA0A052
:10024000A07C004464544C44000008774100000046
:10025000006300000000417708000008040808045B
:10026000003A4040207A003D4040403D0021545437
:100270005479007D1211127D003944444439003D07
:100280004242423D000205020000007E01495573D2
:10029000007C1010081C003048204830005C6202CE
:1002A000625CBC5F9C60A4618462B6639664B06566
:1002B0009F66B5678968A969FFFFAE2000B0C800D6
:1002C0001040813FA1A6A81FA4D300D5F0D922DAFF
:1002D00002DB208D140011241FBECFE5D4E0DEBF69
:1002E000CDBF10E0A0E6B0E0E8E4FCE002C005907D
:1002F0000D92A436B107D9F710E0A4E6B0E001C032
:100300001D92AA36B107E1F7FDD39CC479CE11B88E
:1003100080E280B984E086BF0895282F84EA86BFF2
:1003200080EA90E006C0019721F480916900816025
:1003300010C006B607FC02C00097A9F723B984E8ED
:1003400086BF80EA90E008C0019731F4809169008F
:10035000826080936900089506B607FC02C000978A
:1003600099F7089584E986BF089583B984E886BF24
:1003700080EA90E008C0019731F4809169008460C0
:1003800080936900089506B607FC02C0009799F7AC
:10039000089584EC86BF80EA90E009C0019739F4A3
:1003A0008091690088608093690080E0089506B6B6
:1003B00007FC02C0009791F783B1089584E886BFD7
:1003C00080EA90E009C0019739F48091690080616A
:1003D0008093690080E0089506B607FC02C000978C
:1003E00091F783B10895809360000895EF92FF9292
:1003F0000F931F93CF93DF937C018B0188E78DDFF1
:1004000080E4B3DFC0E0D0E006C0F701EC0FFD1FD1
:100410008081ABDF2196C017D107B8F3A3DFDF914E
:10042000CF911F910F91FF90EF900895FF920F933E
:100430001F93CF93DF93182F092FF62E88E76DDFD8
:1004400080E093DF212F302FC901EC0110E003C0C1
:1004500089918BDF1F5F1F15D8F384DFDF91CF9168
:100460001F910F91FF900895DF93CF9300D0CDB7E8
:10047000DEB728EC298391EA9A83813051F08130EC
:1004800028F0823049F0833081F409C029839A83AF
:1004900008C080EC898303C080EC898302C080EAB5
:1004A0008A83CE01019662E0C1DF0F900F90CF9159
:1004B000DF910895DF93CF9300D0CDB7DEB791E8F9
:1004C00099838A83CE01019662E0B0DF0F900F908E
:1004D000CF91DF910895DF93CF930F92CDB7DEB721
:1004E000813011F08FEA01C08EEA8983CE01019636
:1004F00061E09CDF0F90CF91DF910895DF93CF9360
:100500000F92CDB7DEB7813011F086EA01C087EADD
:100510008983CE01019661E089DF0F90CF91DF9151
:100520000895DF93CF9300D000D0CDB7DEB7982FDA
:10053000813888F4643078F48093640060936500B7
:100540006055698381E28A839B838FE78C83CE0128
:10055000019664E06BDF0F900F900F900F90CF919A
:10056000DF91089596E0899F802D1124DADF0895A8
:1005700080E060E0F7DF0895FF920F931F93DF9311
:10058000CF93CDB7DEB7C058D0400FB6F894DEBFDA
:100590000FBECDBFFE01319680E8DF011D928A9526
:1005A000E9F710E0FE2E0F2F80E0612FDBDF8F2DAB
:1005B000902F60E870E01ADF1F5F1430A9F7D8DFD2
:1005C000C058DF4F0FB6F894DEBF0FBECDBFCF913E
:1005D000DF911F910F91FF9008958F929F92AF929C
:1005E000BF92CF92DF92EF92FF920F931F93DF9310
:1005F000CF93CDB7DEB7A2970FB6F894DEBF0FBE8C
:10060000CDBF8930D9F08A3020F4883009F040C05D
:1006100005C08A3081F18D30D9F538C080916400F1
:1006200090916000891B609165009CDF80E2D5DFBE
:100630008091640090916000891B17C060916400F4
:1006400080916000482F50E0440F551F440F551F04
:100650009A01260F311D88279927841B950B4596F3
:100660002817390730F4862F840F609165007ADFF0
:1006700012C185E1FACF60916500633008F00BC1CB
:1006800080916000680F80916400F1CF80E0EDCF31
:10069000609164006A3708F0FEC0803208F4FBC045
:1006A000282F2052E3EAF2E0E4912E17C8F030E060
:1006B000422F50E00AC08E559D4FFC01849190E07E
:1006C00080978417950761F03F5F832F90E0880F34
:1006D000991FFC01ED55FD4F24912F3F61F7DBC0C1
:1006E00080916000823009F0B8C0862F90E00C96AF
:1006F0008138910508F0CFC08E01055F1F4F86E05D
:10070000289FD0011124AA5DBF4F480191E0C92E56
:10071000D12C87E1A82EB12CAC0EBD1EF4011182A4
:100720001082FD01849140E050E061E070E0E82E2D
:10073000FF24C701042E02C0959587950A94E2F71D
:1007400080FF1AC0CA01880F991F960102C0220FAC
:10075000331F8A95E2F7C901F40120813181822B90
:10076000932B9601062E02C0220F331F0A94E2F744
:10077000822B932B918380834F5F5F4F6E5F7F4F00
:1007800048305105B1F622E030E0820E931E1196FA
:100790008A149B0409F0C2CFA80120E030E0BE011A
:1007A000695E7F4FE8E1EE2EF12CEC0EFD1EF901A3
:1007B000EE0FFF1FDA018C91DB01AE0FBF1F8C9390
:1007C000EE0DFF1D80832F5F3F4F4E5F5F4F263042
:1007D000310569F7CB016CE070E008DE90916400B0
:1007E000809165008F54898381E28A839B838FE7A0
:1007F0008C83CE01019664E019DE20E030E0AE018A
:10080000495E5F4FBE01685E7F4FF901EE0FFF1F2B
:10081000D80111968C91DA01AE0FBF1F8C93E60FB1
:10082000F71F80832F5F3F4F0E5F1F4F263031052C
:1008300061F7CA016CE070E0D9DD809165008055F8
:10084000898380916400845F8B83CE01019664E08C
:10085000EDDD80916400845F1CC086E0289F9001DC
:1008600011242A5D3F4FDE011596CD016A2FAE019E
:10087000455F5F4FF90184918D932F5F3F4FA41720
:10088000B507C1F7862F66E070E0B0DD80916400A7
:100890008A5F80936400A2960FB6F894DEBF0FBE05
:1008A000CDBFCF91DF911F910F91FF90EF90DF901F
:1008B000CF90BF90AF909F908F900895CF93DF938C
:1008C000EC0101C08ADEFE01219684918823D1F7D4
:1008D000DF91CF910895CF93DF93EC0102C0219671
:1008E0007CDE88818823D9F7DF91CF9108951F930B
:1008F000DF93CF93CDB7DEB76C970FB6F894DEBF1A
:100900000FBECDBF182F03DD20E030E0CE010196F1
:10091000F901E654FD4FE491DC01A20FB31FEC9303
:100920002F5F3F4F2B31310599F71C8F6CE17EDD36
:1009300023DE6C960FB6F894DEBF0FBECDBFCF910D
:10094000DF911F910895882329F0813029F4939A2B
:100950008B980895929A8A980895882329F0813077
:1009600029F493988B9A089592988A9A08958823E7
:1009700019F081E0E8DF02C081E0EFDF829BFECF6B
:100980008299FECF0895EF92FF920F931F93E82E66
:1009900081E0D9DF80E0D7DF08E512E0C8010197E8
:1009A000F1F780E0DADFC8010197F1F781E0D5DFE8
:1009B0008AE18A95F1F780E0C6DF8299FECFFF24B5
:1009C000F39400E01E2D1170812FD1DFF126E69403
:1009D0000F5F0830B9F78F2DCADF81E0B4DF85E8FB
:1009E0008A95F1F78299FECF829BFECF839BFCCF45
:1009F00080E0B3DF1F910F91FF90EF9008958299EF
:100A0000FECF80B3829BFECF8695869586958170BA
:100A10000895FF920F931F9380E095DF81E093DFAD
:100A200085E88A95F1F7EBDF813011F410926300CD
:100A3000FF2401E010E0F694E2DF882311F090E853
:100A4000F92A817008271F5F1830A9F7D8DF402FD7
:100A500050E020E030E0882311F021E030E0421740
:100A6000530711F010926300CADF882311F410922B
:100A7000630080E072DF8F2D1F910F91FF9008952A
:100A800082DFC7DF8A3F11F010926300089580E093
:100A90005ADF81E058DF8FEFF3DFBBDF8A3A11F0D6
:100AA00010926300B6DF882311F01092630083EF89
:100AB000E7DF88ECE5DF83EFE3DF84E6E1DF83EF68
:100AC000DFDF80E5DDDF82EFDBDFA3DF90E0833077
:100AD00009F491E090936700992319F48FE08093D3
:100AE000680088EECDDF83E0CBDF83EFC9DF8CE3E6
:100AF000C7DF86EEC5DF84EFC3DF88EC90E00197A7
:100B0000F1F70895EF92FF920F931F93CF93DF9326
:100B1000A49AAC982FE088E190E00FB6F894A895DD
:100B200081BD0FBE21BDB3DF88E10FB6F89481BD52
:100B300011BC0FBEAC9A8FEF87BBA09AA19AA29A64
:100B4000A898A998AA9888BB22E0822F8A95F1F7E5
:100B5000A89A9AE1892F8A95F1F7A89880E888BB2E
:100B6000822F8A95F1F7A99A892F8A95F1F7A9988A
:100B700080E688BB2A95F1F7AA9A9A95F1F7AA9888
:100B800092E0F92E0AE1C8E1D0E08EE0E82E41DFE4
:100B9000809366003EDF182F3CDF282F809166008F
:100BA00090E087709070892B11F0AC9801C0AC9ADE
:100BB00080916100810F8093610080916200820FBB
:100BC0008093620080916700882339F0109168005B
:100BD00020DF181B1F70109368008091610088BB94
:100BE0008F2D8A95F1F7A89A802F8A95F1F7A8980A
:100BF0008091620088BB8F2D8A95F1F7A99A802F8A
:100C00008A95F1F7A99890916600909597708091D8
:100C100068008295807F892B886088BB8F2D8A959C
:100C2000F1F7AA9A802F8A95F1F7AA98809163002C
:100C3000882309F0ACCF0FB6F894A895C1BD0FBEBC
:080C4000E1BCA5CFF894FFCF41
:040C480001806001C6
:00000001FF
